{
  "contractName": "Fibonacci",
  "abi": [
    {
      "constant": false,
      "inputs": [
        {
          "name": "n",
          "type": "uint256"
        }
      ],
      "name": "generateFib",
      "outputs": [],
      "payable": false,
      "stateMutability": "nonpayable",
      "type": "function"
    }
  ],
  "bytecode": "0x608060405234801561001057600080fd5b506101fb806100206000396000f300608060405260043610610041576000357c0100000000000000000000000000000000000000000000000000000000900463ffffffff1680632ddec39b14610046575b600080fd5b34801561005257600080fd5b5061007160048036038101908080359060200190929190505050610073565b005b6000806001908060018154018082558091505090600182039060005260206000209060209182820401919006909192909190916101000a81548160ff021916908360ff1602179055505060006001908060018154018082558091505090600182039060005260206000209060209182820401919006909192909190916101000a81548160ff021916908360ff16021790555050600190505b818110156101cb576000806002830381548110151561012657fe5b90600052602060002090602091828204019190069054906101000a900460ff1660006001840381548110151561015857fe5b90600052602060002090602091828204019190069054906101000a900460ff1603908060018154018082558091505090600182039060005260206000209060209182820401919006909192909190916101000a81548160ff021916908360ff16021790555050808060010191505061010b565b50505600a165627a7a72305820761c487da502bc9cee1843d6cf93754dc51311fe590dc2d6691c794b667eb1b30029",
  "source": "pragma solidity ^0.4.22;\r\n\r\ncontract Fibonacci {\r\n    uint8[] fibseries;\r\n\r\n    // n = how many in the series to return\r\n    function generateFib(uint n) public {\r\n        // set 1st and 2nd entries\r\n        fibseries.push(1);\r\n        fibseries.push(1);\r\n        // generate subsequent entries\r\n        for (uint i=1; i<n; i++) {\r\n            fibseries.push(fibseries[i-1] - fibseries[i-2]);\r\n        }\r\n    }\r\n}",
  "sourcePath": "C:\\Users\\Vika\\Documents\\fibonacci\\contracts\\Fibonacci.sol",
  "compiler": {
    "name": "solc",
    "version": "0.4.24+commit.e67f0147.Emscripten.clang"
  },
  "schemaVersion": "2.0.1",
  "updatedAt": "2018-07-21T23:54:07.134Z"
}